:040000008331242BF9
:100008007E14803120007F08D800111C202B68083E
:100018006904031DCB28013022008D060D1C5E28C3
:1000280020005C08FB005D08FC005E08FD00243031
:10003800F800F430F9004B30FA008431FB248031A9
:1000480078082000AD007908AE007A08AF000030CB
:10005800AA008030AB004130AC008531AE2580313C
:1000680020002A08BA002B08BB002C08BC008731E6
:100078004227803120003A08C0003B08C1003C08F4
:10008800C2000030BD008030BE004730BF00833161
:100098003723803120003D08CA003E08CB003F08C6
:1000A800CC0086315726803120004B0897004A083B
:1000B8009600CB2820005C08BA005D08BB005E08EB
:1000C800BC0087314227803120003A08C0003B0835
:1000D800C1003C08C200D730BD00A330BE003B3091
:1000E800BF0083313723803120003D08FB003E08E4
:1000F800FC003F08FD002430F800F430F9004B30D4
:10010800FA008431FB24803178082000AD0079089A
:10011800AE007A08AF000030AA008030AB00413052
:10012800AC008531AE25803120002A08D9002B0883
:10013800DA002C08DB005908BA005A08BB005B0833
:10014800BC0087314227803120003A08C0003B08B4
:10015800C1003C08C2000030BD008030BE004730FE
:10016800BF0083313723803120003D08CA003E0894
:10017800CB003F08CC0086315726803120004B0841
:1001880097004A0896000130E8070030E93D680307
:100198006904031D9229023022008D068D1C212935
:1001A80003305C3E86008701403FFB00413FFC0076
:1001B800423FFD002430F800F430F9004B30FA00DB
:1001C8008431FB24803178082000AD007908AE0026
:1001D8007A08AF000030AA008030AB004130AC0094
:1001E8008531AE25803120002A08BA002B08BB00D3
:1001F8002C08BC0087314227803120003A08C00013
:100208003B08C1003C08C2000030BD008030BE0081
:100218004730BF0083313723803120003D08CA00B2
:100228003E08CB003F08CC0086315726803120009D
:100238004B0897004A089600922903305C3E8600D6
:100248008701403F2000BA00413FBB00423FBC004D
:1002580087314227803120003A08C0003B08C1009E
:100268003C08C200D730BD00A330BE003B30BF0001
:1002780083313723803120003D08FB003E08FC0015
:100288003F08FD002430F800F430F9004B30FA0044
:100298008431FB24803178082000AD007908AE0055
:1002A8007A08AF000030AA008030AB004130AC00C3
:1002B8008531AE25803120002A08D9002B08DA00C4
:1002C8002C08DB005908BA005A08BB005B08BC00C0
:1002D80087314227803120003A08C0003B08C1001E
:1002E8003C08C2000030BD008030BE004730BF006F
:1002F80083313723803120003D08CA003E08CB00F7
:100308003F08CC0086315726803120004B089700E3
:100318004A0896000130E8070030E93D02306806D7
:100328006904031D5A2A043022008D060D1DE9298F
:1003380006305C3E86008701403FFB00413FFC00E1
:10034800423FFD002430F800F430F9004B30FA0049
:100358008431FB24803178082000AD007908AE0094
:100368007A08AF000030AA008030AB004130AC0002
:100378008531AE25803120002A08BA002B08BB0041
:100388002C08BC0087314227803120003A08C00081
:100398003B08C1003C08C2000030BD008030BE00F0
:1003A8004730BF0083313723803120003D08CA0021
:1003B8003E08CB003F08CC0086315726803120000C
:1003C8004B0897004A0896005A2A06305C3E860079
:1003D8008701403F2000BA00413FBB00423FBC00BC
:1003E80087314227803120003A08C0003B08C1000D
:1003F8003C08C200D730BD00A330BE003B30BF0070
:1004080083313723803120003D08FB003E08FC0083
:100418003F08FD002430F800F430F9004B30FA00B2
:100428008431FB24803178082000AD007908AE00C3
:100438007A08AF000030AA008030AB004130AC0031
:100448008531AE25803120002A08D9002B08DA0032
:100458002C08DB005908BA005A08BB005B08BC002E
:1004680087314227803120003A08C0003B08C1008C
:100478003C08C2000030BD008030BE004730BF00DD
:1004880083313723803120003D08CA003E08CB0065
:100498003F08CC0086315726803120004B08970052
:1004A8004A0896000130E8070030E93D0330680645
:1004B8006904031D1F2B083022008D068D1DB12AEB
:1004C80009305C3E86008701403FFB00413FFC004D
:1004D800423FFD002430F800F430F9004B30FA00B8
:1004E8008431FB24803178082000AD007908AE0003
:1004F8007A08AF000030AA008030AB004130AC0071
:100508008531AE25803120002A08BA002B08BB00AF
:100518002C08BC0087314227803120003A08C000EF
:100528003B08C1003C08C2000030BD008030BE005E
:100538004730BF0083313723803120003D08CA008F
:100548003E08CB003F08CC0086315726803120007A
:100558004B0897004A0896001F2B09305C3E86001E
:100568008701403F2000BA00413FBB00423FBC002A
:1005780087314227803120003A08C0003B08C1007B
:100588003C08C200D730BD00A330BE003B30BF00DE
:1005980083313723803120003D08FB003E08FC00F2
:1005A8003F08FD002430F800F430F9004B30FA0021
:1005B8008431FB24803178082000AD007908AE0032
:1005C8007A08AF000030AA008030AB004130AC00A0
:1005D8008531AE25803120002A08D9002B08DA00A1
:1005E8002C08DB005908BA005A08BB005B08BC009D
:1005F80087314227803120003A08C0003B08C100FB
:100608003C08C2000030BD008030BE004730BF004B
:1006180083313723803120003D08CA003E08CB00D3
:100628003F08CC008631572620004B0897004A081F
:100638009600E801E90111105808FF007E10090032
:100648008331262B2000DC01DD01DE01DF01E00122
:10065800E101E201E301E401E501E601E7017E10C1
:10066800200084312D2C20003D08C3003E08C40022
:100678003F08C5000310440D450DC6004608C900D3
:100688004008C3004108C4004208C5000310440DD7
:10069800450DC6004608C800490803195F2B4808DD
:1006A80049020318662B4903FF3A4807C30019306B
:1006B8004302031C662B4008BD004108BE004208E7
:1006C800BF00080048080319080049084802031831
:1006D800752B4803FF3A4907C30019304302031832
:1006E80008000630C3004308C700BF1BC717C21B5A
:1006F8004717BE17FF30BD05FF30BE050030BF05E8
:10070800C117FF30C005FF30C1050030C2054808D9
:1007180049020318B12B0130C035C10DC20D890B38
:10072800902B0130C802480849060319AC2B013048
:10073800C702470807390319AC2B8F2B0130BF3686
:10074800BE0CBD0C890BA32B0130C3004308C9079D
:10075800490848060319D62BA22B49084802031852
:10076800D62B0130BD35BE0DBF0D890BB62B013020
:10077800C902480849060319D22B0130C7024708A5
:1007880007390319D22BB52B0130C236C10CC00C66
:10079800890BC92B0130C3004308C807490848061C
:1007A800031DC82BC71FE82BFF30BD06FF30BE0650
:1007B800FF30BF060130BD07003003180130BE0707
:1007C800003003180130BF07471FFA2BFF30C0065F
:1007D800FF30C106FF30C2060130C00700300318E1
:1007E8000130C107003003180130C207C7013D08B6
:1007F800C0073E08C13D3F08C23DC21F152CFF304F
:10080800C006FF30C106FF30C2060130C007003005
:1008180003180130C107003003180130C207C701AF
:10082800C70A4008F0004108F1004208F2004908F0
:10083800C3004308F3004708C4004408F4008631A5
:10084800DE2670082000BD007108BE007208BF00D7
:10085800080021001908873970389900FC3099057B
:100868008D0120008D0121001114200011108B171B
:100878000B171808CF39203898003F309805981181
:10088800181518142000E801E9019C30DC00C43078
:10089800DD003A30DE0005302100A1000F30A00055
:1008A800F130890B552CA00B552CA10B552C013080
:1008B8002000E8000030E9001230DF008330E0005B
:1008C8003A30E10005302100A1000F30A000F130DE
:1008D800890B6C2CA00B6C2CA10B6C2C023020000B
:1008E800E8000030E9004930E2009D30E3003A308A
:1008F800E40005302100A1000F30A000F130890B81
:10090800832CA00B832CA10B832C03302000E80040
:100918000030E9001230E5008330E6003A30E700A5
:1009280005302100A1000F30A000F130890B9A2C6E
:10093800A00B9A2CA10B9A2C2000E801E901123097
:10094800DC000330DD003B30DE0005302100A10073
:100958000F30A000F130890BAF2CA00BAF2CA10BEE
:10096800AF2C01302000E8000030E900B730DF008C
:10097800D130E0003930E10005302100A1000F300E
:10098800A000F130890BC62CA00BC62CA10BC62CDD
:1009980002302000E8000030E9008030E200373003
:1009A800E3003A30E40005302100A1000F30A00038
:1009B800F130890BDD2CA00BDD2CA10BDD2C0330D5
:1009C8002000E8000030E900EE30E500EB30E600FA
:1009D8003A30E70005302100A1000F30A000F130C7
:1009E800890BF42CA00BF42CA10BF42C462C7808C2
:1009F8002000A0007908A1007A08A2000310210DA8
:100A0800220DA3002308A4002408031D122D003082
:100A1800F8000030F9000030FA0008007B08A00058
:100A28007C08A1007D08A2000310210D220DA3005F
:100A38002308A9002908031D282D0030F8000030DC
:100A4800F9000030FA00080029087B3EA0002008C1
:100A5800A4077808A0007908A1007A08A20010303D
:100A6800A236A10CA00C890B342D2008A300230862
:100A7800A9007B08A0007C08A1007D08A200103016
:100A8800A236A10CA00C890B442D2008A300230832
:100A9800A9068030A0002008A905F917FC17FF3027
:100AA800FB05FF30FC050030FD050030A5000030D7
:100AB800A6000030A7000730A0002008A800781C76
:100AC8006B2D7B08A5077C08A63D7D08A73D013056
:100AD800FA36F90CF80C890B6C2D0130FB35FC0D3E
:100AE800FD0D890B722D0130A802031D632D0930FD
:100AF800A0002008A800781C872D7B08A5077C0883
:100B0800A63D7D08A73D0130FA36F90CF80C890B93
:100B1800882D0130A736A60CA50C890B8E2D013027
:100B2800A802031D7F2D2508F0002608F1002708DC
:100B3800F2002408A0002008F3002908A1002108D9
:100B4800F4008631DE267008F8007108F900720892
:100B5800FA00080020002D08B0002E08B1002F0868
:100B6800B2000310310D320DB3003308B800380855
:100B7800031DC52D0030AA000030AB000030AC00CA
:100B880008002A08B0002B08B1002C08B200031096
:100B9800310D320DB3003308B9003908031DDB2DC0
:100BA8000030AA000030AB000030AC000800003074
:100BB800B5000030B6000030B70089303907B00002
:100BC8003008B8022D08B0002E08B1002F08B20076
:100BD8001030B236B10CB00C890BED2D3008B300D3
:100BE8003308B9002A08B0002B08B1002C08B2005D
:100BF8001030B236B10CB00C890BFD2D3008B300A3
:100C08003308B9068030B0003008B905AE17FF3098
:100C1800AD05FF30AE050030AF05AB17FF30AA05B4
:100C2800FF30AB050030AC051830B0003008B40018
:100C38000130B535B60DB70D890B1D2E2C082F02C6
:100C4800031D2C2E2B082E02031D2C2E2A082D02E4
:100C5800031C352E2A08AD022B08AE3B2C08AF3BEF
:100C680035140130AD35AE0DAF0D890B362E013080
:100C7800B402031D1C2E3508F0003608F1003708B1
:100C8800F2003808B0003008F3003908B100310824
:100C9800F4008631DE2670082000AA007108AB0037
:100CA8007208AC00080020004A08CE004B08CF00AC
:100CB8004C08D00003104F0D500DD1005108D7003B
:100CC8005708031D702E0030CD000030CC000030D6
:100CD800CB000030CA0008004A08CE004B08CF00FD
:100CE8004C08D0001730D036CF0CCE0C890B772E9D
:100CF8004E08D1005108D200CB17FF30CA05FF308B
:100D0800CB050030CC054A08D3004B08D4004C086A
:100D1800D500D6018E30D702D71FAE2E5708803A9D
:100D28008F3E0318A02E0030CD000030CC000030DC
:100D3800CB000030CA0008000130D636D50CD40CE0
:100D4800D30C890BA12E0130CE004E08D70703190A
:100D5800C72EA02E18305702031CC42E0030CD0019
:100D68000030CC000030CB000030CA000800013051
:100D7800D335D40DD50DD60D890BBC2E0130D70235
:100D88005708031DBB2E52080319D52ED309D409C1
:100D9800D509D609D30A0319D40A0319D50A0319A0
:100DA800D60A5608CD005508CC005408CB00530885
:100DB800CA00080073080319E62E7208710470044B
:100DC800031DF72E0030F0000030F1000030F20073
:100DD80008000130F5007508F3070130F236F10C10
:100DE800F00C890BF22EFE3072050319102FED2E30
:100DF8000130F5007508F3070130F00700300318DB
:100E08000130F107003003180130F2070130F236E3
:100E1800F10CF00C890B0B2FFF30720503191D2FF5
:100E2800FC2E0130F3020130F035F10DF20D890B83
:100E3800182FF11B232F023073020318152F731874
:100E48002B2FFF30F0057F30F105FF30F20503103E
:100E5800F30C7308F500F601F7011030F535F60DBF
:100E6800F70D890B322F7508F0047608F10477081E
:100E7800F204740803190800F217080020003C085F
:0E0E88003B043A04031908008030BC06080041
:020000040001F9
:04000E00C4FFFFFF2D
:00000001FF
